{"abi":[{"type":"constructor","inputs":[{"name":"_ecoTokenAddress","type":"address","internalType":"address"}],"stateMutability":"nonpayable"},{"type":"function","name":"TIMELOCK_DURATION","inputs":[],"outputs":[{"name":"","type":"uint256","internalType":"uint256"}],"stateMutability":"view"},{"type":"function","name":"ecoToken","inputs":[],"outputs":[{"name":"","type":"address","internalType":"contract IERC20"}],"stateMutability":"view"},{"type":"function","name":"executeProposal","inputs":[{"name":"proposalId","type":"uint256","internalType":"uint256"}],"outputs":[],"stateMutability":"nonpayable"},{"type":"function","name":"getProposal","inputs":[{"name":"proposalId","type":"uint256","internalType":"uint256"}],"outputs":[{"name":"","type":"tuple","internalType":"struct DAOGovernance.Proposal","components":[{"name":"id","type":"uint256","internalType":"uint256"},{"name":"proposer","type":"address","internalType":"address"},{"name":"description","type":"string","internalType":"string"},{"name":"voteCount","type":"uint256","internalType":"uint256"},{"name":"executed","type":"bool","internalType":"bool"},{"name":"queuingTime","type":"uint256","internalType":"uint256"},{"name":"queued","type":"bool","internalType":"bool"}]}],"stateMutability":"view"},{"type":"function","name":"getTotalSupply","inputs":[],"outputs":[{"name":"","type":"uint256","internalType":"uint256"}],"stateMutability":"view"},{"type":"function","name":"initialBalances","inputs":[{"name":"","type":"address","internalType":"address"}],"outputs":[{"name":"","type":"uint256","internalType":"uint256"}],"stateMutability":"view"},{"type":"function","name":"proposalCount","inputs":[],"outputs":[{"name":"","type":"uint256","internalType":"uint256"}],"stateMutability":"view"},{"type":"function","name":"proposals","inputs":[{"name":"","type":"uint256","internalType":"uint256"}],"outputs":[{"name":"id","type":"uint256","internalType":"uint256"},{"name":"proposer","type":"address","internalType":"address"},{"name":"description","type":"string","internalType":"string"},{"name":"voteCount","type":"uint256","internalType":"uint256"},{"name":"executed","type":"bool","internalType":"bool"},{"name":"queuingTime","type":"uint256","internalType":"uint256"},{"name":"queued","type":"bool","internalType":"bool"}],"stateMutability":"view"},{"type":"function","name":"queueProposal","inputs":[{"name":"proposalId","type":"uint256","internalType":"uint256"}],"outputs":[],"stateMutability":"nonpayable"},{"type":"function","name":"quorumPercentage","inputs":[],"outputs":[{"name":"","type":"uint256","internalType":"uint256"}],"stateMutability":"view"},{"type":"function","name":"submitProposal","inputs":[{"name":"description","type":"string","internalType":"string"}],"outputs":[],"stateMutability":"nonpayable"},{"type":"function","name":"vote","inputs":[{"name":"proposalId","type":"uint256","internalType":"uint256"}],"outputs":[],"stateMutability":"nonpayable"},{"type":"function","name":"votes","inputs":[{"name":"","type":"uint256","internalType":"uint256"},{"name":"","type":"address","internalType":"address"}],"outputs":[{"name":"","type":"bool","internalType":"bool"}],"stateMutability":"view"},{"type":"event","name":"ProposalExecuted","inputs":[{"name":"proposalId","type":"uint256","indexed":false,"internalType":"uint256"}],"anonymous":false},{"type":"event","name":"ProposalQueued","inputs":[{"name":"proposalId","type":"uint256","indexed":false,"internalType":"uint256"},{"name":"executionTime","type":"uint256","indexed":false,"internalType":"uint256"}],"anonymous":false},{"type":"event","name":"ProposalSubmitted","inputs":[{"name":"id","type":"uint256","indexed":false,"internalType":"uint256"},{"name":"proposer","type":"address","indexed":false,"internalType":"address"},{"name":"description","type":"string","indexed":false,"internalType":"string"}],"anonymous":false},{"type":"event","name":"Voted","inputs":[{"name":"proposalId","type":"uint256","indexed":false,"internalType":"uint256"},{"name":"voter","type":"address","indexed":false,"internalType":"address"},{"name":"voteCount","type":"uint256","indexed":false,"internalType":"uint256"}],"anonymous":false}],"bytecode":{"object":"0x6080604052600a600255348015601457600080fd5b5060405161125c38038061125c8339810160408190526031916055565b600080546001600160a01b0319166001600160a01b03929092169190911790556083565b600060208284031215606657600080fd5b81516001600160a01b0381168114607c57600080fd5b9392505050565b6111ca806100926000396000f3fe608060405234801561001057600080fd5b50600436106100cf5760003560e01c8063705d53041161008c578063c4e41b2211610066578063c4e41b22146101bd578063c7f758a8146101c5578063d23254b4146101e5578063da35c6641461022357600080fd5b8063705d53041461015f5780638ce1e6a21461018a57806394a14a34146101aa57600080fd5b80630121b93f146100d4578063013cf08b146100e95780630d61b51914610118578063373d6d5e1461012b5780634623c81e1461013e5780634fa76ec914610156575b600080fd5b6100e76100e2366004610d16565b61022c565b005b6100fc6100f7366004610d16565b610518565b60405161010f9796959493929190610d75565b60405180910390f35b6100e7610126366004610d16565b6105eb565b6100e7610139366004610ddd565b61073a565b6101486202a30081565b60405190815260200161010f565b61014860025481565b600054610172906001600160a01b031681565b6040516001600160a01b03909116815260200161010f565b610148610198366004610eaa565b60056020526000908152604090205481565b6100e76101b8366004610d16565b61092f565b610148610afe565b6101d86101d3366004610d16565b610b7b565b60405161010f9190610ecc565b6102136101f3366004610f3d565b600460209081526000928352604080842090915290825290205460ff1681565b604051901515815260200161010f565b61014860015481565b60015481106102785760405162461bcd60e51b8152602060048201526013602482015272125b9d985b1a59081c1c9bdc1bdcd85b081251606a1b60448201526064015b60405180910390fd5b600080546040516370a0823160e01b81523360048201526001600160a01b03909116906370a0823190602401602060405180830381865afa1580156102c1573d6000803e3d6000fd5b505050506040513d601f19601f820116820180604052508101906102e59190610f69565b116103325760405162461bcd60e51b815260206004820152601a60248201527f596f75206e6565642045636f546f6b656e7320746f20766f7465000000000000604482015260640161026f565b600081815260046020908152604080832033845290915290205460ff161561038c5760405162461bcd60e51b815260206004820152600d60248201526c105b1c9958591e481d9bdd1959609a1b604482015260640161026f565b600080546040516370a0823160e01b81523360048201526001600160a01b03909116906370a0823190602401602060405180830381865afa1580156103d5573d6000803e3d6000fd5b505050506040513d601f19601f820116820180604052508101906103f99190610f69565b3360009081526005602052604081205491925081900361042757503360009081526005602052604090205550565b60006104338284610f98565b9050600081116104855760405162461bcd60e51b815260206004820152601a60248201527f4e6f206e657720746f6b656e7320746f20766f74652077697468000000000000604482015260640161026f565b600084815260036020819052604082200180548392906104a6908490610fb1565b909155505060008481526004602090815260408083203380855290835292819020805460ff191660011790558051878152918201929092529081018290527f1abe610cf2bf87e57dcc1181fcf5ac0934e843d8344ab9eed6e86c799f62585e906060015b60405180910390a150505050565b60036020526000908152604090208054600182015460028301805492936001600160a01b039092169261054a90610fc4565b80601f016020809104026020016040519081016040528092919081815260200182805461057690610fc4565b80156105c35780601f10610598576101008083540402835291602001916105c3565b820191906000526020600020905b8154815290600101906020018083116105a657829003601f168201915b505050506003830154600484015460058501546006909501549394919360ff91821693501687565b6000818152600360205260409020600681015460ff166106435760405162461bcd60e51b8152602060048201526013602482015272141c9bdc1bdcd85b081b9bdd081c5d595d5959606a1b604482015260640161026f565b600481015460ff161561068b5760405162461bcd60e51b815260206004820152601060248201526f105b1c9958591e48195e1958dd5d195960821b604482015260640161026f565b6202a300816005015461069e9190610fb1565b4210156106ed5760405162461bcd60e51b815260206004820152601a60248201527f54696d656c6f636b20706572696f64206e6f7420706173736564000000000000604482015260640161026f565b60048101805460ff191660011790556040517f712ae1383f79ac853f8d882153778e0260ef8f03b504e2866e0593e04d2b291f9061072e9084815260200190565b60405180910390a15050565b6000546040516370a0823160e01b8152336004820152683635c9adc5dea00000916001600160a01b0316906370a0823190602401602060405180830381865afa15801561078b573d6000803e3d6000fd5b505050506040513d601f19601f820116820180604052508101906107af9190610f69565b10156108125760405162461bcd60e51b815260206004820152602c60248201527f496e73756666696369656e742045434f20746f6b656e7320746f207375626d6960448201526b1d0818481c1c9bdc1bdcd85b60a21b606482015260840161026f565b6040805160e081018252600180548083523360208085019182528486018781526000606087018190526080870181905260a0870181905260c0870181905293845260039091529490912083518155905191810180546001600160a01b0319166001600160a01b039093169290921790915591519091906002820190610897908261104f565b5060608201516003820155608082015160048201805491151560ff1992831617905560a0830151600583015560c09092015160069091018054911515919092161790556001546040517fba63161e1c7e096aaf63cb63b137eeea26b870df0007c6e2ad029bae55d651799161090f913390859061110f565b60405180910390a16001805490600061092783611142565b919050555050565b6000818152600360209081526040808320835482516318160ddd60e01b815292519194936001600160a01b03909116926318160ddd92600480830193928290030181865afa158015610985573d6000803e3d6000fd5b505050506040513d601f19601f820116820180604052508101906109a99190610f69565b905060006064600254836109bd919061115b565b6109c79190611172565b90508083600301541015610a125760405162461bcd60e51b8152602060048201526012602482015271145d5bdc9d5b481b9bdd081c995858da195960721b604482015260640161026f565b600683015460ff1615610a585760405162461bcd60e51b815260206004820152600e60248201526d105b1c9958591e481c5d595d595960921b604482015260640161026f565b600483015460ff1615610aa05760405162461bcd60e51b815260206004820152601060248201526f105b1c9958591e48195e1958dd5d195960821b604482015260640161026f565b426005840181905560068401805460ff191660011790557f9a2e42fd6722813d69113e7d0079d3d940171428df7373df9c7f7617cfda2892908590610ae9906202a30090610fb1565b6040805192835260208301919091520161050a565b60008060009054906101000a90046001600160a01b03166001600160a01b03166318160ddd6040518163ffffffff1660e01b8152600401602060405180830381865afa158015610b52573d6000803e3d6000fd5b505050506040513d601f19601f82011682018060405250810190610b769190610f69565b905090565b610bc86040518060e001604052806000815260200160006001600160a01b031681526020016060815260200160008152602001600015158152602001600081526020016000151581525090565b6001548210610c0f5760405162461bcd60e51b8152602060048201526013602482015272125b9d985b1a59081c1c9bdc1bdcd85b081251606a1b604482015260640161026f565b600082815260036020908152604091829020825160e0810184528154815260018201546001600160a01b0316928101929092526002810180549293919291840191610c5990610fc4565b80601f0160208091040260200160405190810160405280929190818152602001828054610c8590610fc4565b8015610cd25780601f10610ca757610100808354040283529160200191610cd2565b820191906000526020600020905b815481529060010190602001808311610cb557829003601f168201915b505050918352505060038201546020820152600482015460ff9081161515604083015260058301546060830152600690920154909116151560809091015292915050565b600060208284031215610d2857600080fd5b5035919050565b6000815180845260005b81811015610d5557602081850181015186830182015201610d39565b506000602082860101526020601f19601f83011685010191505092915050565b8781526001600160a01b038716602082015260e060408201819052600090610d9f90830188610d2f565b606083019690965250921515608084015260a0830191909152151560c0909101529392505050565b634e487b7160e01b600052604160045260246000fd5b600060208284031215610def57600080fd5b813567ffffffffffffffff80821115610e0757600080fd5b818401915084601f830112610e1b57600080fd5b813581811115610e2d57610e2d610dc7565b604051601f8201601f19908116603f01168101908382118183101715610e5557610e55610dc7565b81604052828152876020848701011115610e6e57600080fd5b826020860160208301376000928101602001929092525095945050505050565b80356001600160a01b0381168114610ea557600080fd5b919050565b600060208284031215610ebc57600080fd5b610ec582610e8e565b9392505050565b602081528151602082015260018060a01b0360208301511660408201526000604083015160e06060840152610f05610100840182610d2f565b9050606084015160808401526080840151151560a084015260a084015160c084015260c0840151151560e08401528091505092915050565b60008060408385031215610f5057600080fd5b82359150610f6060208401610e8e565b90509250929050565b600060208284031215610f7b57600080fd5b5051919050565b634e487b7160e01b600052601160045260246000fd5b81810381811115610fab57610fab610f82565b92915050565b80820180821115610fab57610fab610f82565b600181811c90821680610fd857607f821691505b602082108103610ff857634e487b7160e01b600052602260045260246000fd5b50919050565b601f82111561104a576000816000526020600020601f850160051c810160208610156110275750805b601f850160051c820191505b8181101561104657828155600101611033565b5050505b505050565b815167ffffffffffffffff81111561106957611069610dc7565b61107d816110778454610fc4565b84610ffe565b602080601f8311600181146110b2576000841561109a5750858301515b600019600386901b1c1916600185901b178555611046565b600085815260208120601f198616915b828110156110e1578886015182559484019460019091019084016110c2565b50858210156110ff5787850151600019600388901b60f8161c191681555b5050505050600190811b01905550565b8381526001600160a01b038316602082015260606040820181905260009061113990830184610d2f565b95945050505050565b60006001820161115457611154610f82565b5060010190565b8082028115828204841417610fab57610fab610f82565b60008261118f57634e487b7160e01b600052601260045260246000fd5b50049056fea2646970667358221220c99483ee4bbff51a03fb64c3b71ccee104ebeb915e22a4581bb04e650be7397364736f6c63430008190033","linkReferences":{}},"methodIdentifiers":{"TIMELOCK_DURATION()":"4623c81e","ecoToken()":"705d5304","executeProposal(uint256)":"0d61b519","getProposal(uint256)":"c7f758a8","getTotalSupply()":"c4e41b22","initialBalances(address)":"8ce1e6a2","proposalCount()":"da35c664","proposals(uint256)":"013cf08b","queueProposal(uint256)":"94a14a34","quorumPercentage()":"4fa76ec9","submitProposal(string)":"373d6d5e","vote(uint256)":"0121b93f","votes(uint256,address)":"d23254b4"},"id":35}