{"abi":[{"type":"constructor","inputs":[{"name":"initialSupply","type":"uint256","internalType":"uint256"}],"stateMutability":"nonpayable"},{"type":"function","name":"MAX_PROJECT_SUPPLY","inputs":[],"outputs":[{"name":"","type":"uint256","internalType":"uint256"}],"stateMutability":"view"},{"type":"function","name":"MAX_SUPPLY","inputs":[],"outputs":[{"name":"","type":"uint256","internalType":"uint256"}],"stateMutability":"view"},{"type":"function","name":"allowance","inputs":[{"name":"owner","type":"address","internalType":"address"},{"name":"spender","type":"address","internalType":"address"}],"outputs":[{"name":"","type":"uint256","internalType":"uint256"}],"stateMutability":"view"},{"type":"function","name":"approve","inputs":[{"name":"spender","type":"address","internalType":"address"},{"name":"value","type":"uint256","internalType":"uint256"}],"outputs":[{"name":"","type":"bool","internalType":"bool"}],"stateMutability":"nonpayable"},{"type":"function","name":"balanceOf","inputs":[{"name":"account","type":"address","internalType":"address"}],"outputs":[{"name":"","type":"uint256","internalType":"uint256"}],"stateMutability":"view"},{"type":"function","name":"completeCrossChainTransfer","inputs":[{"name":"to","type":"address","internalType":"address"},{"name":"amount","type":"uint256","internalType":"uint256"},{"name":"","type":"uint256","internalType":"uint256"}],"outputs":[],"stateMutability":"nonpayable"},{"type":"function","name":"decimals","inputs":[],"outputs":[{"name":"","type":"uint8","internalType":"uint8"}],"stateMutability":"view"},{"type":"function","name":"initiateCrossChainTransfer","inputs":[{"name":"to","type":"address","internalType":"address"},{"name":"amount","type":"uint256","internalType":"uint256"},{"name":"destinationChainId","type":"uint256","internalType":"uint256"}],"outputs":[],"stateMutability":"nonpayable"},{"type":"function","name":"mint","inputs":[{"name":"to","type":"address","internalType":"address"},{"name":"amount","type":"uint256","internalType":"uint256"},{"name":"projectId","type":"uint256","internalType":"uint256"}],"outputs":[],"stateMutability":"nonpayable"},{"type":"function","name":"name","inputs":[],"outputs":[{"name":"","type":"string","internalType":"string"}],"stateMutability":"view"},{"type":"function","name":"owner","inputs":[],"outputs":[{"name":"","type":"address","internalType":"address"}],"stateMutability":"view"},{"type":"function","name":"projectSupply","inputs":[{"name":"","type":"uint256","internalType":"uint256"}],"outputs":[{"name":"","type":"uint256","internalType":"uint256"}],"stateMutability":"view"},{"type":"function","name":"renounceOwnership","inputs":[],"outputs":[],"stateMutability":"nonpayable"},{"type":"function","name":"symbol","inputs":[],"outputs":[{"name":"","type":"string","internalType":"string"}],"stateMutability":"view"},{"type":"function","name":"totalSupply","inputs":[],"outputs":[{"name":"","type":"uint256","internalType":"uint256"}],"stateMutability":"view"},{"type":"function","name":"transfer","inputs":[{"name":"to","type":"address","internalType":"address"},{"name":"value","type":"uint256","internalType":"uint256"}],"outputs":[{"name":"","type":"bool","internalType":"bool"}],"stateMutability":"nonpayable"},{"type":"function","name":"transferFrom","inputs":[{"name":"from","type":"address","internalType":"address"},{"name":"to","type":"address","internalType":"address"},{"name":"value","type":"uint256","internalType":"uint256"}],"outputs":[{"name":"","type":"bool","internalType":"bool"}],"stateMutability":"nonpayable"},{"type":"function","name":"transferOwnership","inputs":[{"name":"newOwner","type":"address","internalType":"address"}],"outputs":[],"stateMutability":"nonpayable"},{"type":"function","name":"verifiedProjects","inputs":[{"name":"","type":"uint256","internalType":"uint256"}],"outputs":[{"name":"","type":"bool","internalType":"bool"}],"stateMutability":"view"},{"type":"function","name":"verifyProject","inputs":[{"name":"projectId","type":"uint256","internalType":"uint256"}],"outputs":[],"stateMutability":"nonpayable"},{"type":"event","name":"Approval","inputs":[{"name":"owner","type":"address","indexed":true,"internalType":"address"},{"name":"spender","type":"address","indexed":true,"internalType":"address"},{"name":"value","type":"uint256","indexed":false,"internalType":"uint256"}],"anonymous":false},{"type":"event","name":"CrossChainTransferInitiated","inputs":[{"name":"from","type":"address","indexed":true,"internalType":"address"},{"name":"to","type":"address","indexed":true,"internalType":"address"},{"name":"amount","type":"uint256","indexed":false,"internalType":"uint256"},{"name":"destinationChainId","type":"uint256","indexed":false,"internalType":"uint256"}],"anonymous":false},{"type":"event","name":"OwnershipTransferred","inputs":[{"name":"previousOwner","type":"address","indexed":true,"internalType":"address"},{"name":"newOwner","type":"address","indexed":true,"internalType":"address"}],"anonymous":false},{"type":"event","name":"ProjectVerified","inputs":[{"name":"projectId","type":"uint256","indexed":false,"internalType":"uint256"}],"anonymous":false},{"type":"event","name":"Transfer","inputs":[{"name":"from","type":"address","indexed":true,"internalType":"address"},{"name":"to","type":"address","indexed":true,"internalType":"address"},{"name":"value","type":"uint256","indexed":false,"internalType":"uint256"}],"anonymous":false},{"type":"error","name":"ERC20InsufficientAllowance","inputs":[{"name":"spender","type":"address","internalType":"address"},{"name":"allowance","type":"uint256","internalType":"uint256"},{"name":"needed","type":"uint256","internalType":"uint256"}]},{"type":"error","name":"ERC20InsufficientBalance","inputs":[{"name":"sender","type":"address","internalType":"address"},{"name":"balance","type":"uint256","internalType":"uint256"},{"name":"needed","type":"uint256","internalType":"uint256"}]},{"type":"error","name":"ERC20InvalidApprover","inputs":[{"name":"approver","type":"address","internalType":"address"}]},{"type":"error","name":"ERC20InvalidReceiver","inputs":[{"name":"receiver","type":"address","internalType":"address"}]},{"type":"error","name":"ERC20InvalidSender","inputs":[{"name":"sender","type":"address","internalType":"address"}]},{"type":"error","name":"ERC20InvalidSpender","inputs":[{"name":"spender","type":"address","internalType":"address"}]},{"type":"error","name":"OwnableInvalidOwner","inputs":[{"name":"owner","type":"address","internalType":"address"}]},{"type":"error","name":"OwnableUnauthorizedAccount","inputs":[{"name":"account","type":"address","internalType":"address"}]}],"bytecode":{"object":"0x608060405234801561001057600080fd5b506040516111d63803806111d683398101604081905261002f916102f1565b336040518060400160405280600881526020016722b1b7aa37b5b2b760c11b8152506040518060400160405280600381526020016245434f60e81b815250816003908161007c91906103ab565b50600461008982826103ab565b5050506001600160a01b0381166100bb57604051631e4fbdf760e01b8152600060048201526024015b60405180910390fd5b6100c48161013b565b506b033b2e3c9fd0803ce800000081111561012b5760405162461bcd60e51b815260206004820152602160248201527f496e697469616c20737570706c792065786365656473206d617820737570706c6044820152607960f81b60648201526084016100b2565b610135338261018d565b50610491565b600580546001600160a01b038381166001600160a01b0319831681179093556040519116919082907f8be0079c531659141344cd1fd0a4f28419497f9722a3daafe3b4186f6b6457e090600090a35050565b6001600160a01b0382166101b75760405163ec442f0560e01b8152600060048201526024016100b2565b6101c3600083836101c7565b5050565b6001600160a01b0383166101f25780600260008282546101e7919061046a565b909155506102649050565b6001600160a01b038316600090815260208190526040902054818110156102455760405163391434e360e21b81526001600160a01b038516600482015260248101829052604481018390526064016100b2565b6001600160a01b03841660009081526020819052604090209082900390555b6001600160a01b0382166102805760028054829003905561029f565b6001600160a01b03821660009081526020819052604090208054820190555b816001600160a01b0316836001600160a01b03167fddf252ad1be2c89b69c2b068fc378daa952ba7f163c4a11628f55a4df523b3ef836040516102e491815260200190565b60405180910390a3505050565b60006020828403121561030357600080fd5b5051919050565b634e487b7160e01b600052604160045260246000fd5b600181811c9082168061033457607f821691505b60208210810361035457634e487b7160e01b600052602260045260246000fd5b50919050565b601f8211156103a6576000816000526020600020601f850160051c810160208610156103835750805b601f850160051c820191505b818110156103a25782815560010161038f565b5050505b505050565b81516001600160401b038111156103c4576103c461030a565b6103d8816103d28454610320565b8461035a565b602080601f83116001811461040d57600084156103f55750858301515b600019600386901b1c1916600185901b1785556103a2565b600085815260208120601f198616915b8281101561043c5788860151825594840194600190910190840161041d565b508582101561045a5787850151600019600388901b60f8161c191681555b5050505050600190811b01905550565b8082018082111561048b57634e487b7160e01b600052601160045260246000fd5b92915050565b610d36806104a06000396000f3fe608060405234801561001057600080fd5b506004361061012c5760003560e01c8063715018a6116100ad578063d11aa50b11610071578063d11aa50b1461026d578063dd62ed3e14610290578063ed1ca91a146102c9578063f2fde38b146102dc578063f993435d146102ef57600080fd5b8063715018a61461021c578063788aaa39146102245780638da5cb5b1461023757806395d89b4114610252578063a9059cbb1461025a57600080fd5b806323b872dd116100f457806323b872dd146101ac57806328e249e0146101bf578063313ce567146101d157806332cb6b0c146101e057806370a08231146101f357600080fd5b806306fdde0314610131578063095ea7b31461014f578063156e29f61461017257806318160ddd14610187578063189b3b4614610199575b600080fd5b61013961030f565b6040516101469190610b33565b60405180910390f35b61016261015d366004610b9e565b6103a1565b6040519015158152602001610146565b610185610180366004610bc8565b6103bb565b005b6002545b604051908152602001610146565b6101856101a7366004610bc8565b610531565b6101626101ba366004610bfb565b6105ac565b61018b6a52b7d2dcc80cd2e400000081565b60405160128152602001610146565b61018b6b033b2e3c9fd0803ce800000081565b61018b610201366004610c37565b6001600160a01b031660009081526020819052604090205490565b6101856105d0565b610185610232366004610bc8565b6105e4565b6005546040516001600160a01b039091168152602001610146565b6101396106af565b610162610268366004610b9e565b6106be565b61016261027b366004610c59565b60066020526000908152604090205460ff1681565b61018b61029e366004610c72565b6001600160a01b03918216600090815260016020908152604080832093909416825291909152205490565b6101856102d7366004610c59565b6106cc565b6101856102ea366004610c37565b61072a565b61018b6102fd366004610c59565b60076020526000908152604090205481565b60606003805461031e90610ca5565b80601f016020809104026020016040519081016040528092919081815260200182805461034a90610ca5565b80156103975780601f1061036c57610100808354040283529160200191610397565b820191906000526020600020905b81548152906001019060200180831161037a57829003601f168201915b5050505050905090565b6000336103af818585610768565b60019150505b92915050565b6103c3610775565b60008181526006602052604090205460ff166104265760405162461bcd60e51b815260206004820152601860248201527f50726f6a656374206d757374206265207665726966696564000000000000000060448201526064015b60405180910390fd5b6b033b2e3c9fd0803ce80000008261043d60025490565b6104479190610cdf565b111561048a5760405162461bcd60e51b815260206004820152601260248201527145786365656473206d617820737570706c7960701b604482015260640161041d565b6000818152600760205260409020546a52b7d2dcc80cd2e4000000906104b1908490610cdf565b11156104ff5760405162461bcd60e51b815260206004820152601c60248201527f457863656564732070726f6a65637420737570706c79206c696d697400000000604482015260640161041d565b61050983836107a2565b60008181526007602052604081208054849290610527908490610cdf565b9091555050505050565b610539610775565b6b033b2e3c9fd0803ce80000008261055060025490565b61055a9190610cdf565b111561059d5760405162461bcd60e51b815260206004820152601260248201527145786365656473206d617820737570706c7960701b604482015260640161041d565b6105a783836107a2565b505050565b6000336105ba8582856107dc565b6105c585858561085a565b506001949350505050565b6105d8610775565b6105e260006108b9565b565b336000908152602081905260409020548211156106595760405162461bcd60e51b815260206004820152602d60248201527f496e73756666696369656e742062616c616e636520666f722063726f73732d6360448201526c3430b4b7103a3930b739b332b960991b606482015260840161041d565b610663338361090b565b60408051838152602081018390526001600160a01b0385169133917f68caef99ef6602084c1da46457c9f3b2fd2bf1d3cac11ec0bfcd4d2d841b361b91015b60405180910390a3505050565b60606004805461031e90610ca5565b6000336103af81858561085a565b6106d4610775565b60008181526006602052604090819020805460ff19166001179055517f2fe72be8f4566f35545876185d6cc546d49e5b96e94813ba058f82a4d4b816239061071f9083815260200190565b60405180910390a150565b610732610775565b6001600160a01b03811661075c57604051631e4fbdf760e01b81526000600482015260240161041d565b610765816108b9565b50565b6105a78383836001610941565b6005546001600160a01b031633146105e25760405163118cdaa760e01b815233600482015260240161041d565b6001600160a01b0382166107cc5760405163ec442f0560e01b81526000600482015260240161041d565b6107d860008383610a16565b5050565b6001600160a01b038381166000908152600160209081526040808320938616835292905220546000198114610854578181101561084557604051637dc7a0d960e11b81526001600160a01b0384166004820152602481018290526044810183905260640161041d565b61085484848484036000610941565b50505050565b6001600160a01b03831661088457604051634b637e8f60e11b81526000600482015260240161041d565b6001600160a01b0382166108ae5760405163ec442f0560e01b81526000600482015260240161041d565b6105a7838383610a16565b600580546001600160a01b038381166001600160a01b0319831681179093556040519116919082907f8be0079c531659141344cd1fd0a4f28419497f9722a3daafe3b4186f6b6457e090600090a35050565b6001600160a01b03821661093557604051634b637e8f60e11b81526000600482015260240161041d565b6107d882600083610a16565b6001600160a01b03841661096b5760405163e602df0560e01b81526000600482015260240161041d565b6001600160a01b03831661099557604051634a1406b160e11b81526000600482015260240161041d565b6001600160a01b038085166000908152600160209081526040808320938716835292905220829055801561085457826001600160a01b0316846001600160a01b03167f8c5be1e5ebec7d5bd14f71427d1e84f3dd0314c0f7b2291e5b200ac8c7c3b92584604051610a0891815260200190565b60405180910390a350505050565b6001600160a01b038316610a41578060026000828254610a369190610cdf565b90915550610ab39050565b6001600160a01b03831660009081526020819052604090205481811015610a945760405163391434e360e21b81526001600160a01b0385166004820152602481018290526044810183905260640161041d565b6001600160a01b03841660009081526020819052604090209082900390555b6001600160a01b038216610acf57600280548290039055610aee565b6001600160a01b03821660009081526020819052604090208054820190555b816001600160a01b0316836001600160a01b03167fddf252ad1be2c89b69c2b068fc378daa952ba7f163c4a11628f55a4df523b3ef836040516106a291815260200190565b60006020808352835180602085015260005b81811015610b6157858101830151858201604001528201610b45565b506000604082860101526040601f19601f8301168501019250505092915050565b80356001600160a01b0381168114610b9957600080fd5b919050565b60008060408385031215610bb157600080fd5b610bba83610b82565b946020939093013593505050565b600080600060608486031215610bdd57600080fd5b610be684610b82565b95602085013595506040909401359392505050565b600080600060608486031215610c1057600080fd5b610c1984610b82565b9250610c2760208501610b82565b9150604084013590509250925092565b600060208284031215610c4957600080fd5b610c5282610b82565b9392505050565b600060208284031215610c6b57600080fd5b5035919050565b60008060408385031215610c8557600080fd5b610c8e83610b82565b9150610c9c60208401610b82565b90509250929050565b600181811c90821680610cb957607f821691505b602082108103610cd957634e487b7160e01b600052602260045260246000fd5b50919050565b808201808211156103b557634e487b7160e01b600052601160045260246000fdfea2646970667358221220539652705206e3d078715c527a57f6c74b95992d962c4762251e804cdb63a21a64736f6c63430008190033","linkReferences":{}},"methodIdentifiers":{"MAX_PROJECT_SUPPLY()":"28e249e0","MAX_SUPPLY()":"32cb6b0c","allowance(address,address)":"dd62ed3e","approve(address,uint256)":"095ea7b3","balanceOf(address)":"70a08231","completeCrossChainTransfer(address,uint256,uint256)":"189b3b46","decimals()":"313ce567","initiateCrossChainTransfer(address,uint256,uint256)":"788aaa39","mint(address,uint256,uint256)":"156e29f6","name()":"06fdde03","owner()":"8da5cb5b","projectSupply(uint256)":"f993435d","renounceOwnership()":"715018a6","symbol()":"95d89b41","totalSupply()":"18160ddd","transfer(address,uint256)":"a9059cbb","transferFrom(address,address,uint256)":"23b872dd","transferOwnership(address)":"f2fde38b","verifiedProjects(uint256)":"d11aa50b","verifyProject(uint256)":"ed1ca91a"},"id":37}