{"abi":[{"type":"constructor","inputs":[],"stateMutability":"nonpayable"},{"type":"function","name":"balanceOf","inputs":[{"name":"account","type":"address","internalType":"address"},{"name":"id","type":"uint256","internalType":"uint256"}],"outputs":[{"name":"","type":"uint256","internalType":"uint256"}],"stateMutability":"view"},{"type":"function","name":"balanceOfBatch","inputs":[{"name":"accounts","type":"address[]","internalType":"address[]"},{"name":"ids","type":"uint256[]","internalType":"uint256[]"}],"outputs":[{"name":"","type":"uint256[]","internalType":"uint256[]"}],"stateMutability":"view"},{"type":"function","name":"isApprovedForAll","inputs":[{"name":"account","type":"address","internalType":"address"},{"name":"operator","type":"address","internalType":"address"}],"outputs":[{"name":"","type":"bool","internalType":"bool"}],"stateMutability":"view"},{"type":"function","name":"mint","inputs":[{"name":"id","type":"uint256","internalType":"uint256"},{"name":"amount","type":"uint256","internalType":"uint256"},{"name":"data","type":"bytes","internalType":"bytes"}],"outputs":[],"stateMutability":"nonpayable"},{"type":"function","name":"safeBatchTransferFrom","inputs":[{"name":"from","type":"address","internalType":"address"},{"name":"to","type":"address","internalType":"address"},{"name":"ids","type":"uint256[]","internalType":"uint256[]"},{"name":"values","type":"uint256[]","internalType":"uint256[]"},{"name":"data","type":"bytes","internalType":"bytes"}],"outputs":[],"stateMutability":"nonpayable"},{"type":"function","name":"safeTransferFrom","inputs":[{"name":"from","type":"address","internalType":"address"},{"name":"to","type":"address","internalType":"address"},{"name":"id","type":"uint256","internalType":"uint256"},{"name":"value","type":"uint256","internalType":"uint256"},{"name":"data","type":"bytes","internalType":"bytes"}],"outputs":[],"stateMutability":"nonpayable"},{"type":"function","name":"setApprovalForAll","inputs":[{"name":"operator","type":"address","internalType":"address"},{"name":"approved","type":"bool","internalType":"bool"}],"outputs":[],"stateMutability":"nonpayable"},{"type":"function","name":"supportsInterface","inputs":[{"name":"interfaceId","type":"bytes4","internalType":"bytes4"}],"outputs":[{"name":"","type":"bool","internalType":"bool"}],"stateMutability":"view"},{"type":"function","name":"uri","inputs":[{"name":"","type":"uint256","internalType":"uint256"}],"outputs":[{"name":"","type":"string","internalType":"string"}],"stateMutability":"view"},{"type":"event","name":"ApprovalForAll","inputs":[{"name":"account","type":"address","indexed":true,"internalType":"address"},{"name":"operator","type":"address","indexed":true,"internalType":"address"},{"name":"approved","type":"bool","indexed":false,"internalType":"bool"}],"anonymous":false},{"type":"event","name":"TransferBatch","inputs":[{"name":"operator","type":"address","indexed":true,"internalType":"address"},{"name":"from","type":"address","indexed":true,"internalType":"address"},{"name":"to","type":"address","indexed":true,"internalType":"address"},{"name":"ids","type":"uint256[]","indexed":false,"internalType":"uint256[]"},{"name":"values","type":"uint256[]","indexed":false,"internalType":"uint256[]"}],"anonymous":false},{"type":"event","name":"TransferSingle","inputs":[{"name":"operator","type":"address","indexed":true,"internalType":"address"},{"name":"from","type":"address","indexed":true,"internalType":"address"},{"name":"to","type":"address","indexed":true,"internalType":"address"},{"name":"id","type":"uint256","indexed":false,"internalType":"uint256"},{"name":"value","type":"uint256","indexed":false,"internalType":"uint256"}],"anonymous":false},{"type":"event","name":"URI","inputs":[{"name":"value","type":"string","indexed":false,"internalType":"string"},{"name":"id","type":"uint256","indexed":true,"internalType":"uint256"}],"anonymous":false},{"type":"error","name":"ERC1155InsufficientBalance","inputs":[{"name":"sender","type":"address","internalType":"address"},{"name":"balance","type":"uint256","internalType":"uint256"},{"name":"needed","type":"uint256","internalType":"uint256"},{"name":"tokenId","type":"uint256","internalType":"uint256"}]},{"type":"error","name":"ERC1155InvalidApprover","inputs":[{"name":"approver","type":"address","internalType":"address"}]},{"type":"error","name":"ERC1155InvalidArrayLength","inputs":[{"name":"idsLength","type":"uint256","internalType":"uint256"},{"name":"valuesLength","type":"uint256","internalType":"uint256"}]},{"type":"error","name":"ERC1155InvalidOperator","inputs":[{"name":"operator","type":"address","internalType":"address"}]},{"type":"error","name":"ERC1155InvalidReceiver","inputs":[{"name":"receiver","type":"address","internalType":"address"}]},{"type":"error","name":"ERC1155InvalidSender","inputs":[{"name":"sender","type":"address","internalType":"address"}]},{"type":"error","name":"ERC1155MissingApprovalForAll","inputs":[{"name":"operator","type":"address","internalType":"address"},{"name":"owner","type":"address","internalType":"address"}]}],"bytecode":{"object":"0x608060405234801561001057600080fd5b506040518060600160405280602681526020016113386026913961003381610039565b506101a9565b600261004582826100ea565b5050565b634e487b7160e01b600052604160045260246000fd5b600181811c9082168061007357607f821691505b60208210810361009357634e487b7160e01b600052602260045260246000fd5b50919050565b601f8211156100e5576000816000526020600020601f850160051c810160208610156100c25750805b601f850160051c820191505b818110156100e1578281556001016100ce565b5050505b505050565b81516001600160401b0381111561010357610103610049565b61011781610111845461005f565b84610099565b602080601f83116001811461014c57600084156101345750858301515b600019600386901b1c1916600185901b1785556100e1565b600085815260208120601f198616915b8281101561017b5788860151825594840194600190910190840161015c565b50858210156101995787850151600019600388901b60f8161c191681555b5050505050600190811b01905550565b611180806101b86000396000f3fe608060405234801561001057600080fd5b50600436106100925760003560e01c80632eb2c2d6116100665780632eb2c2d6146101155780634e1273f414610128578063a22cb46514610148578063e985e9c51461015b578063f242432a1461016e57600080fd5b8062fdd58e1461009757806301ffc9a7146100bd57806308dc9f42146100e05780630e89341c146100f5575b600080fd5b6100aa6100a5366004610aeb565b610181565b6040519081526020015b60405180910390f35b6100d06100cb366004610b2e565b6101a9565b60405190151581526020016100b4565b6100f36100ee366004610c09565b6101f9565b005b610108610103366004610c59565b61020a565b6040516100b49190610cb8565b6100f3610123366004610d5e565b61029e565b61013b610136366004610e08565b61030a565b6040516100b49190610f04565b6100f3610156366004610f17565b6103d7565b6100d0610169366004610f53565b6103e6565b6100f361017c366004610f86565b610414565b6000818152602081815260408083206001600160a01b03861684529091529020545b92915050565b60006001600160e01b03198216636cdb3d1360e11b14806101da57506001600160e01b031982166303a24d0760e21b145b806101a357506301ffc9a760e01b6001600160e01b03198316146101a3565b61020533848484610473565b505050565b60606002805461021990610feb565b80601f016020809104026020016040519081016040528092919081815260200182805461024590610feb565b80156102925780601f1061026757610100808354040283529160200191610292565b820191906000526020600020905b81548152906001019060200180831161027557829003601f168201915b50505050509050919050565b336001600160a01b03861681148015906102bf57506102bd86826103e6565b155b156102f55760405163711bec9160e11b81526001600160a01b038083166004830152871660248201526044015b60405180910390fd5b61030286868686866104d0565b505050505050565b6060815183511461033b5781518351604051635b05999160e01b8152600481019290925260248201526044016102ec565b6000835167ffffffffffffffff81111561035757610357610b52565b604051908082528060200260200182016040528015610380578160200160208202803683370190505b50905060005b84518110156103cf576020808202860101516103aa90602080840287010151610181565b8282815181106103bc576103bc611025565b6020908102919091010152600101610386565b509392505050565b6103e2338383610537565b5050565b6001600160a01b03918216600090815260016020908152604080832093909416825291909152205460ff1690565b336001600160a01b0386168114801590610435575061043386826103e6565b155b156104665760405163711bec9160e11b81526001600160a01b038083166004830152871660248201526044016102ec565b61030286868686866105cd565b6001600160a01b03841661049d57604051632bfa23e760e11b8152600060048201526024016102ec565b6040805160018082526020820186905281830190815260608201859052608082019092529061030260008784848761065b565b6001600160a01b0384166104fa57604051632bfa23e760e11b8152600060048201526024016102ec565b6001600160a01b03851661052357604051626a0d4560e21b8152600060048201526024016102ec565b610530858585858561065b565b5050505050565b6001600160a01b0382166105605760405162ced3e160e81b8152600060048201526024016102ec565b6001600160a01b03838116600081815260016020908152604080832094871680845294825291829020805460ff191686151590811790915591519182527f17307eab39ab6107e8899845ad3d59bd9653f200f220920489ca2b5937696c31910160405180910390a3505050565b6001600160a01b0384166105f757604051632bfa23e760e11b8152600060048201526024016102ec565b6001600160a01b03851661062057604051626a0d4560e21b8152600060048201526024016102ec565b60408051600180825260208201869052818301908152606082018590526080820190925290610652878784848761065b565b50505050505050565b610667858585856106ae565b6001600160a01b0384161561053057825133906001036106a057602084810151908401516106998389898585896108c2565b5050610302565b6103028187878787876109e6565b80518251146106dd5781518151604051635b05999160e01b8152600481019290925260248201526044016102ec565b3360005b83518110156107e3576020818102858101820151908501909101516001600160a01b03881615610794576000828152602081815260408083206001600160a01b038c1684529091529020548181101561076d576040516303dee4c560e01b81526001600160a01b038a1660048201526024810182905260448101839052606481018490526084016102ec565b6000838152602081815260408083206001600160a01b038d16845290915290209082900390555b6001600160a01b038716156107d9576000828152602081815260408083206001600160a01b038b168452909152812080548392906107d390849061103b565b90915550505b50506001016106e1565b5082516001036108645760208301516000906020840151909150856001600160a01b0316876001600160a01b0316846001600160a01b03167fc3d58168c5ae7397731d063d5bbf3d657854427343f4c083240f7aacaa2d0f628585604051610855929190918252602082015260400190565b60405180910390a45050610530565b836001600160a01b0316856001600160a01b0316826001600160a01b03167f4a39dc06d4c0dbc64b70af90fd698a233a518aa5d07e595d983b8c0526c8f7fb86866040516108b392919061105c565b60405180910390a45050505050565b6001600160a01b0384163b156103025760405163f23a6e6160e01b81526001600160a01b0385169063f23a6e6190610906908990899088908890889060040161108a565b6020604051808303816000875af1925050508015610941575060408051601f3d908101601f1916820190925261093e918101906110cf565b60015b6109aa573d80801561096f576040519150601f19603f3d011682016040523d82523d6000602084013e610974565b606091505b5080516000036109a257604051632bfa23e760e11b81526001600160a01b03861660048201526024016102ec565b805181602001fd5b6001600160e01b0319811663f23a6e6160e01b1461065257604051632bfa23e760e11b81526001600160a01b03861660048201526024016102ec565b6001600160a01b0384163b156103025760405163bc197c8160e01b81526001600160a01b0385169063bc197c8190610a2a90899089908890889088906004016110ec565b6020604051808303816000875af1925050508015610a65575060408051601f3d908101601f19168201909252610a62918101906110cf565b60015b610a93573d80801561096f576040519150601f19603f3d011682016040523d82523d6000602084013e610974565b6001600160e01b0319811663bc197c8160e01b1461065257604051632bfa23e760e11b81526001600160a01b03861660048201526024016102ec565b80356001600160a01b0381168114610ae657600080fd5b919050565b60008060408385031215610afe57600080fd5b610b0783610acf565b946020939093013593505050565b6001600160e01b031981168114610b2b57600080fd5b50565b600060208284031215610b4057600080fd5b8135610b4b81610b15565b9392505050565b634e487b7160e01b600052604160045260246000fd5b604051601f8201601f1916810167ffffffffffffffff81118282101715610b9157610b91610b52565b604052919050565b600082601f830112610baa57600080fd5b813567ffffffffffffffff811115610bc457610bc4610b52565b610bd7601f8201601f1916602001610b68565b818152846020838601011115610bec57600080fd5b816020850160208301376000918101602001919091529392505050565b600080600060608486031215610c1e57600080fd5b8335925060208401359150604084013567ffffffffffffffff811115610c4357600080fd5b610c4f86828701610b99565b9150509250925092565b600060208284031215610c6b57600080fd5b5035919050565b6000815180845260005b81811015610c9857602081850181015186830182015201610c7c565b506000602082860101526020601f19601f83011685010191505092915050565b602081526000610b4b6020830184610c72565b600067ffffffffffffffff821115610ce557610ce5610b52565b5060051b60200190565b600082601f830112610d0057600080fd5b81356020610d15610d1083610ccb565b610b68565b8083825260208201915060208460051b870101935086841115610d3757600080fd5b602086015b84811015610d535780358352918301918301610d3c565b509695505050505050565b600080600080600060a08688031215610d7657600080fd5b610d7f86610acf565b9450610d8d60208701610acf565b9350604086013567ffffffffffffffff80821115610daa57600080fd5b610db689838a01610cef565b94506060880135915080821115610dcc57600080fd5b610dd889838a01610cef565b93506080880135915080821115610dee57600080fd5b50610dfb88828901610b99565b9150509295509295909350565b60008060408385031215610e1b57600080fd5b823567ffffffffffffffff80821115610e3357600080fd5b818501915085601f830112610e4757600080fd5b81356020610e57610d1083610ccb565b82815260059290921b84018101918181019089841115610e7657600080fd5b948201945b83861015610e9b57610e8c86610acf565b82529482019490820190610e7b565b96505086013592505080821115610eb157600080fd5b50610ebe85828601610cef565b9150509250929050565b60008151808452602080850194506020840160005b83811015610ef957815187529582019590820190600101610edd565b509495945050505050565b602081526000610b4b6020830184610ec8565b60008060408385031215610f2a57600080fd5b610f3383610acf565b915060208301358015158114610f4857600080fd5b809150509250929050565b60008060408385031215610f6657600080fd5b610f6f83610acf565b9150610f7d60208401610acf565b90509250929050565b600080600080600060a08688031215610f9e57600080fd5b610fa786610acf565b9450610fb560208701610acf565b93506040860135925060608601359150608086013567ffffffffffffffff811115610fdf57600080fd5b610dfb88828901610b99565b600181811c90821680610fff57607f821691505b60208210810361101f57634e487b7160e01b600052602260045260246000fd5b50919050565b634e487b7160e01b600052603260045260246000fd5b808201808211156101a357634e487b7160e01b600052601160045260246000fd5b60408152600061106f6040830185610ec8565b82810360208401526110818185610ec8565b95945050505050565b6001600160a01b03868116825285166020820152604081018490526060810183905260a0608082018190526000906110c490830184610c72565b979650505050505050565b6000602082840312156110e157600080fd5b8151610b4b81610b15565b6001600160a01b0386811682528516602082015260a06040820181905260009061111890830186610ec8565b828103606084015261112a8186610ec8565b9050828103608084015261113e8185610c72565b9897505050505050505056fea2646970667358221220ccefbc77411806e4a4885d35a292be7bd0e2dd51b496a541694074e53ac5c2a864736f6c6343000819003368747470733a2f2f6578616d706c652e636f6d2f6170692f6974656d2f7b69647d2e6a736f6e","linkReferences":{}},"methodIdentifiers":{"balanceOf(address,uint256)":"00fdd58e","balanceOfBatch(address[],uint256[])":"4e1273f4","isApprovedForAll(address,address)":"e985e9c5","mint(uint256,uint256,bytes)":"08dc9f42","safeBatchTransferFrom(address,address,uint256[],uint256[],bytes)":"2eb2c2d6","safeTransferFrom(address,address,uint256,uint256,bytes)":"f242432a","setApprovalForAll(address,bool)":"a22cb465","supportsInterface(bytes4)":"01ffc9a7","uri(uint256)":"0e89341c"},"id":36}